:1000000000800020BD010000753200002D3200008C
:100010002D3200002D3200002D3200002D32000064
:100020002D3200002D3200002D320000753200000C
:10003000753200002D320000C94B0000CD4C00008D
:100040007532000075320000753200007532000014
:100050007532000075320000753200007532000004
:1000600075320000753200007532000075320000F4
:1000700075320000753200007532000075320000E4
:1000800075320000753200007532000075320000D4
:1000900075320000753200007532000075320000C4
:1000A000611400006D14000075320000753200000C
:1000B00075320000753200007532000075320000A4
:1000C0007532000075320000753200007532000094
:1000D0007532000075320000753200007532000084
:1000E0007532000075320000753200007532000074
:1000F00075320000094D000075320000354E0000D9
:1001000075320000614F000075320000753200004A
:100110007532000075320000753200007532000043
:100120007532000075320000753200007532000033
:100130007532000075320000753200007532000023
:100140007532000075320000753200007532000013
:100150007532000075320000753200007532000003
:10016000753200001D3B0000753200007532000042
:1001700075320000753200007532000075320000E3
:1001800075320000753200007532000075320000D3
:1001900075320000753200007532000075320000C3
:1001A00075320000753200007532000075320000B3
:1001B000753200007532000075320000564B4CF26B
:1001C000205210B51A804DF628121A8000BF00BFC9
:1001D00003F054F8514B4FF010621A60504A9A6085
:1001E000504ADA60504A136813F4807304D14F49BF
:1001F0000B604FF4A85313604D4B1A78110703D5C9
:100200001A7842F008021A704A4B4B492A221A7097
:100210004A4A4B4B8B4204D252F8040F43F8040B6A
:10022000F8E7484B484900228B4202D243F8042B9E
:10023000FAE74649464A002352F8230041F82300D2
:1002400001336F2BF8D1434B434A802103F8011B44
:100250009342FBD1414B3D4A1A60414B8A221A70AE
:10026000A3F5805324225A70A0221A709A7992071B
:10027000FCD59A79D406FCD43A4A937903F00C035E
:10028000082B384BF9D105221A7143225A719A79F9
:100290009006FCD5334A9179324B4906FBD5324A58
:1002A0004FF0817111600521516020221A709A79F6
:1002B00002F00C020C2AFAD12C4B2D4A1A602D4B5D
:1002C0002D4A1A6000225A60072243F8042C2B4A58
:1002D000C3F80C2D62B603F0D7FA144B1B68DA078B
:1002E00005D5274803F030F9264B274A1A60274BDB
:1002F0001B785B0609D5234C234B22689A4204D114
:100300001F4803F021F90023236006F011FD02F0DD
:10031000BBFF02F0E9FEFEE70E20054030800440FE
:10032000823F04000100002B10D0034014D0034092
:1003300002D0074000E00740C492FF1FBC860000C7
:100340002087FF1FC492FF1F8896FF1F0082FF1F98
:100350000000000000E400E05FE400E008ED00E0E1
:1003600000500640004006404480044004800440A1
:10037000C010050014E000E03F190100000020203B
:10038000ECC1FF5E1CE00340A5C3945A00F0074097
:10039000FFFFFFFFFFFFFFFFFFFFFFFFFFFFFFFF6D
:1003A000FFFFFFFFFFFFFFFFFFFFFFFFFFFFFFFF5D
:1003B000FFFFFFFFFFFFFFFFFFFFFFFFFFFFFFFF4D
:1003C000FFFFFFFFFFFFFFFFFFFFFFFFFFFFFFFF3D
:1003D000FFFFFFFFFFFFFFFFFFFFFFFFFFFFFFFF2D
:1003E000FFFFFFFFFFFFFFFFFFFFFFFFFFFFFFFF1D
:1003F000FFFFFFFFFFFFFFFFFFFFFFFFFFFFFFFF0D
:10040000FFFFFFFFFFFFFFFFFFFFFFFFDEF9FFFF23
:1004100010B5054C237833B9044B13B10448AFF33E
:1004200000800123237010BDC492FF1F0000000054
:10043000B8860000084B10B51BB108490848AFF357
:1004400000800848036803B910BD074B002BFBD0A0
:10045000BDE81040184700BF00000000C892FF1F11
:10046000B8860000C492FF1F00000000074B084A36
:100470001B6882B0019301991368CB1A952B03D99D
:10048000044B116001221A7002B070479493FF1F51
:10049000E492FF1F6C93FF1F00B5012183B0282059
:1004A00003F078F90021102003F074F900210E20E8
:1004B00003F070F902210C2003F06CF902221049BC
:1004C0000C2002F081FF0A2002F03EFD0A2003F01A
:1004D0004BF9012300933C2202210A4801F0D4FF8A
:1004E00038B91921084804F0AFF9084802F0CAFBEE
:1004F000FEE7044803B05DF804EB02F09BB900BFCF
:100500006D0400000493FF1F30770000CC89FF1FAB
:1005100070B50E2002F04CFD800048BF00F2FF30A5
:10052000364C8012206004F029F9354B1A78C0B29D
:1005300012B3226802BB334D33492A701E781D78EE
:1005400001220A70314A1B78002111704BBB304BDD
:10055000002230281A702CD02E4A00233128137024
:100560003AD02D4A322813703FD12C4B01221A70F9
:100570002B4B00221A7070BD23491A78204E00259B
:100580000D7012BB1F4D19781D4A00262E700029D0
:10059000D8D021680229D5D11C4B127801221A70BB
:1005A000D5E72368032BD2D1194B012230281A70CA
:1005B000D2D11A4A18491748002313700B70184BF0
:1005C0000124002204701A7070BD21680129D9D15C
:1005D0000C4A35781170B5E7104A0F491370104B6B
:1005E0000120002208701A7070BD0C4A3328137065
:1005F000BED10B4B01221A7070BD00BF8493FF1F48
:100600006C93FF1F6E93FF1F6D93FF1FFC92FF1FE4
:100610007093FF1F6F93FF1FE892FF1FE992FF1F68
:10062000EA92FF1F70B5244B1B8884B0F3B9234CAA
:10063000234A24482449238001231424148003805E
:100640000B80B2F90020214B01211980204821495B
:100650004389B1F90010012605250A24013B1BB28C
:100660008DE8700001F0B8F904B070BD01221349A3
:1006700093420A8008D1124D124813491E220024C9
:100680002A8004800B80DEE70E49022B0A8006D107
:100690000B480D4B2822002102801980D3E70A491C
:1006A000032B0A8006D10648084B32220021028023
:1006B0001980CBE7024AC4E78493FF1F0088FF1F1D
:1006C000F092FF1F0288FF1F0488FF1F0688FF1F8C
:1006D0000493FF1F6A93FF1F10B584B00A4C0B4BA5
:1006E00002930B4A0192042300932046094B4022B7
:1006F000802101F047FD084A0849204604B0BDE8C2
:10070000104004F0DBBC00BF0493FF1FA086010073
:10071000801A06000888FF1FFC87FF1FDD210000EC
:10072000F0B5214C638985B0012500220A262D21D0
:10073000013B8DE842001BB211462046029501F0B4
:100740004BF92046022101F05DFC0026102308220F
:100750001649238211272046E781A682668202F08D
:100760007BFA204602F08EFA2946204601F04AFC28
:1007700030230F220E4923822046E681A58265821E
:1007800002F06AFA204602F07DFA14220949204656
:1007900002F062FA204602F075FA204605B0BDE884
:1007A000F04002F053B900BF0493FF1F4C770000E4
:1007B000587700006877000070B52F4C204602F093
:1007C00039F8FFF7A5FEFFF72DFF2046022101F0C3
:1007D00019FC042501260A222849A68220466682A1
:1007E000E581258202F038FA204602F04BFA3146C4
:1007F000204601F007FC224B22491B88A3820A22D3
:10080000162620466382E581268202F025FA2046DC
:1008100002F038FA1C4B1D491B88A3820E222026A9
:1008200020466382E581268202F016FA204602F015
:1008300029FA174B17491B88A3820C222A26204627
:100840006382E581268202F007FA204602F01AFA56
:10085000114BE5811B881149A382342520461022C3
:100860006382258202F0F8F9204602F00BFA204656
:10087000BDE8704002F0EAB80493FF1F80770000E3
:100880000088FF1F8C7700000288FF1F9877000008
:100890000488FF1FA87700000688FF1FB8770000B4
:1008A00070B52F4C2046042501F0C4FFFFF730FE41
:1008B000FFF7B8FE2046022101F0A4FB01262A46DC
:1008C0002849A68220466682E581258202F0C4F985
:1008D000204602F0D7F93146204601F093FB224B27
:1008E00022491B88A3820A22162620466382E581BC
:1008F000268202F0B1F9204602F0C4F91C4B1D49D2
:100900001B88A3820C22202620466382E581268252
:1009100002F0A2F9204602F0B5F9174B17491B88DF
:10092000A38211222A2620466382E581268202F0D4
:1009300093F9204602F0A6F9114BE5811B88114975
:10094000A3823425204612226382258202F084F994
:10095000204602F097F92046BDE8704002F076B8D4
:100960000493FF1FCC7700000088FF1F8C770000E6
:100970000288FF1FD47700000488FF1FE47700007F
:100980000688FF1FF87700002DE9F04FDFF834A14B
:10099000DAF800307E2B85B000F282805A1C013BD1
:1009A0001BB2CAF800200393102002F001FBDFF80D
:1009B0001891DFF818B13E4BD9F80020CBF8002091
:1009C00040F6E44505FB00F083FB00230344C51714
:1009D0001020C5EB632502F0EBFAC0EBC00310EB6F
:1009E000C300344C48BF00F2FF3001264FF03F08EF
:1009F0008012C0EB0807424620460196CDF80080E1
:100A00007F230021C9F8007000F07EFE00232046FD
:100A100019460196CDF80080072200F075FE0027E8
:100A2000072143463A46204600910197412100F0B4
:100A300039FE3146204601F0E5FA4123E3812046A4
:100A400004221D49A6826682278202F005F93B46F0
:100A5000294620460A2202F025F90222174920469B
:100A600002F0FAF8204602F00DF9B9F90010BAF9CF
:100A70000030BBF900208DE842002046039900F0C9
:100A800043FE3B4629460A220D4802F00BF90C486A
:100A900002F0F8F8204605B0BDE8F04F01F0D6BFEF
:100AA00000240448CAF8004001F0C4FE03947BE728
:100AB000030820800493FF1F0C78000014780000C6
:100AC000CC89FF1F7493FF1FF892FF1F7C93FF1FB9
:100AD00038B5074C02F064FE236848F6B702C31A23
:100AE000934203D90546FFF74FFF256038BD00BF8D
:100AF000E092FF1F38B502F053FE48F6B703984264
:100B000026D9194B196891B140F2FE32914220D991
:100B1000164C174A01250020257010703239282004
:100B2000196002F023FDBDE83840FFF72DBF0F4AE2
:100B30000F481170012404700A4632311960002AEE
:100B4000ECD1282002F012FDBDE83840FFF71CBFB1
:100B500038BD074A127812B1044A1278EDE7034A09
:100B60001278002AEDD0D9E7EC92FF1FF292FF1F16
:100B70006893FF1FFFFFFFFF10B502F011FE48F65C
:100B8000B703984237D9264C23687E2B34D80133DB
:100B900023602449244C4FF26F5202FB03F381FB84
:100BA00003121A44DB17C3EBA2132360184605F0A7
:100BB0005BFD15A3D3E9002305F0F6FE04F0C2FAAD
:100BC00013A3D3E9002305F0C5FD0022174B05F060
:100BD000C1FD11A3D3E9002305F00AFC06F07CF85F
:100BE000134A034601462820136002F0BFFCBDE80B
:100BF0001040FFF7C9BE10BD00230E48236001F06E
:100C000019FE2368C5E700BF000000000088C3404C
:100C10000000000000F88F400000000000F07F405E
:100C2000F492FF1F832008828893FF1F0000E03F9B
:100C30000093FF1F0493FF1F70B51C4C02F0B0FD22
:100C4000236842F20F72C31A934227D9184E3368B1
:100C50007E2B054623D801333360164A1E2B9CBFDA
:100C600000211160A3F11F011F299CBF40F2FF3139
:100C70001160A3F13F011E2998BF0021A3F15E037B
:100C800098BF11601F2B96BF40F2FF3111681160B1
:100C9000282002F06BFCFFF777FE256070BD002373
:100CA0000548336001F0C6FD3368D6E77893FF1F2F
:100CB000F492FF1F0093FF1F0493FF1F70B5914C28
:100CC0002378072B2DD8DFE813F02D004B007D0093
:100CD0008A00B700C300D20008008B4DFFF70AFF5F
:100CE000FFF716FC2B7823B9884B1B78002B00F0FC
:100CF0000781874801F09EFD854801F0A7FE002688
:100D0000844A854B1660314628201E6002F02EFC76
:100D100082488349834A2E70032306600E60166062
:100D2000237070BD06218048774D03F08DFD7F480C
:100D300001F0A8FFFFF7F4FCFFF7EAFB2B7823B9DB
:100D40007B4B1B78002B00F0DA80714801F072FDBC
:100D50006F4801F07BFE0122002322702B7070BDD2
:100D6000694DFFF79DFDFFF7D3FB2B78002B40F07B
:100D7000BC80664B1B78002B40F0B7806D4B1B7816
:100D8000002B40F09E806A4B1B78002B40F099802E
:100D9000694B1B78002B40F08B80684B1B78002B35
:100DA00040F08680664B1B781BB9664B1B78002B86
:100DB000B7D0574801F03EFD554801F047FE0323E8
:100DC000237070BD504DFFF783FEFFF7A1FB2B781A
:100DD000002BBAD14D4B1B78002BB6D170BD4A4DBC
:100DE000FFF7EAFCFFF794FB2B78002B72D1474BFF
:100DF0001B78002B6ED14F4B1B78002B4FD14C4BE7
:100E00001B78002B4BD14C4B1B78002B3ED14B4B0E
:100E10001B78002B3AD14A4B1B7823B9494B1B78DE
:100E2000002B3FF47EAF3A4801F004FD384801F052
:100E30000DFE0723237070BD334DFFF769FB2B7840
:100E4000002B82D1314B1B78002B7FF47EAF70BD1D
:100E50002D4DFFF7F1FEFFF75BFB2B78002B7FF4A6
:100E600048AF2A4B1B78002B7FF443AF70BD264D53
:100E7000FFF782FEFFF74CFB2B78002B7FF439AF96
:100E8000224B1B78002B7FF434AF70BD204801F05B
:100E9000D1FC1F4801F0DAFD06232370BBE71C4894
:100EA00001F0C8FC1A4801F0D1FD05232370AAE720
:100EB000174801F0BFFC164801F0C8FD0423237059
:100EC00070E7134801F0B6FC114801F0BFFD0223A2
:100ED00023705DE70E4801F0ADFC0D4801F0B6FD52
:100EE0000122002322702B7085E7094801F0A2FC43
:100EF000074801F0ABFD002323702B703EE770BD67
:100F000070BD00BF8093FF1F6C93FF1F6F93FF1F87
:100F10000493FF1FEC92FF1F7493FF1F0093FF1FAA
:100F2000F492FF1F8893FF1F18780000CC89FF1FE1
:100F3000E892FF1F6E93FF1FFC92FF1FE992FF1FB5
:100F40007093FF1FEA92FF1F0020704790F839202E
:100F500090F83800101A704790F8383090F839201F
:100F60009A4205D95A1C034480F83820187E7047ED
:100F70004FF0FF30704700BF90F8383090F83920BC
:100F80009A4286BF1B18187E4FF0FF30704700BF93
:100F9000704700BF38B50546B0F85E0090B195F8CF
:100FA0005D301446C3F1210294420CD805F13B0098
:100FB0001844224602F0A0F895F85D30234485F8E5
:100FC0005D30204638BD012014462871EEE700BF91
:100FD000B0F85E306BB190F85D30202B07D8C218A6
:100FE000013380F85D30012082F83B107047012307
:100FF00003710020704700BF0023426980F8383039
:1010000080F8393080F85C3080F85D3080F85E30F0
:1010100080F85F3006CA30B40D68046943662A431D
:1010200083660A60A370426990F8613016491468BB
:1010300013441D7A5B7B01EBC5051B026D6803F44D
:10104000E06343F064032B6090F8623013449D7CAE
:10105000DB7D01EBC5011B02496803F4E06343F04B
:1010600064030B6021685368194205D00369282284
:101070005A70036903229A71036920225A71036925
:1010800080229A7030BC70473083000043690CCBDB
:1010900012681A420CD0094B99420AD9084B99425E
:1010A000036994BF19220A225A70036903229A71B4
:1010B0007047036928225A70F7E700BF7F1A0600BD
:1010C0003F420F0010B50269D378DBB2D90604465F
:1010D0003DD510215806D17038D503F0040303F034
:1010E000FF02002B51D03D49626E00230B7084F843
:1010F0005D30002A5BD0904794F85D30002B56D0CD
:101100002369D0229A70236994F83B201A712369CD
:10111000012284F85C200222DA7010BD304B84F882
:1011200060009C424AD02F4B9C4252D094F8391018
:1011300013791F29DBB207D82848007820B160183E
:10114000013184F8391003760223D37010BD59069B
:10115000C3D4917801F0100101F0FF000029DDD027
:1011600013F001031ED194F85C1094F85D008842DE
:1011700081BF4B1C091984F85C3091F83B30137126
:101180002369D0229A702269DEE7236984F8392026
:10119000C0229A702369114A197901211170022223
:1011A000DA7010BDC023937022691379CCE7012255
:1011B000002384F85D2084F83B30A1E7626994F84D
:1011C0006130094913440322187A02F0FDF82269BC
:1011D000ACE7626994F861300449F3E78C93FF1F30
:1011E0000888FF1F7488FF1F4D120000591200006D
:1011F0000369DB7803F0200373B190F860300133AA
:10120000DBB2012B80F860301AD9426990F8613066
:101210001344187A02F054B970B5426903F0FF051F
:1012200090F8613013440446187A02F049F9A36E2D
:101230005BB184F8385094F83900BDE87040184725
:1012400090F85F30002BE0D0704770BD0148FFF789
:10125000CFBF00BF0888FF1F0148FFF7C9BF00BF0D
:101260007488FF1F2DE9F047364FDFF8DC903B68AC
:10127000026982B006460093DDF8008000217825DF
:10128000D3789B065AD53B680193019BC8EB0303B7
:101290000F2BF5D949B1102BF2D000209070336993
:1012A00080229A7002B0BDE8F087726996F86130CA
:1012B00013440521187A02F06DFA726996F86130CC
:1012C0001344012193F812A0504602F063FA092456
:1012D0000021504602F058FA2B46013BFDD1012176
:1012E000504602F051FA2B46013BFDD1013CEFD1B3
:1012F000706996F861100144F0220C7A4B7B09EB7F
:10130000C4011B02496803F4E06343F064030B600B
:1013100096F862300344997CDB7D09EBC1011B0226
:10132000496803F4E06343F064030B60013AFDD1C4
:101330003269D3789B064FF00101A4D4012002B09A
:10134000BDE8F0879493FF1F30830000F0B5036978
:101350001222DA700269937803F0200385B0044604
:101360000D46002B5ED0B42393703C4922690B6874
:101370000093009E05E00B680193019B9B1B042BCF
:1013800042D8D37803F0200303F0FF00002BF2D003
:1013900094F85D30002B31D04FF0000E4FF0020C6E
:1013A00004EB0E0393F83B3013710B680393039F18
:1013B000206907E09B060DD50B680293029BDB1B9F
:1013C000052B28D8C378DBB203F0020202F0FF0637
:1013D000002AEFD080F803C02669F378DBB2DF067D
:1013E00032462DD49F062BD5DB0731D40EF1010EEA
:1013F00094F85D305FFA8EFE7345D1D800201DBB96
:10140000002384F85E3004E09070236980229A7093
:10141000042005B0F0BD86702369802204209A70F4
:1014200005B0F0BD03F0FF06FFF71CFF10B9042064
:1014300005B0F0BD236984F85F60B0229A7094E72C
:101440008023B3700420DAE726698023B370D7E7DE
:10145000BEF1000F0CBF02200320F6E79493FF1F9C
:101460000148FFF72FBE00BF0888FF1F0148FFF7A4
:1014700029BE00BF7488FF1F704700BF2DE9F04FE1
:1014800085B09946BDF93870BDF83CA0BB1AC1EBD8
:10149000090B002BB8BF5B42BBF1000FB8BFCBF10B
:1014A000000B5B450D4616460093804648DC4D45D3
:1014B0003A4633464CDC194613460A46C5EB090149
:1014C0009B1A89B2002B0CB2B8BF5B4204EBD474F8
:1014D000BE42ACBF4FF0FF3201224D450391029254
:1014E0004FEA640429DC9BB201930DE0D8F8007048
:1014F000BF69B847019BE41AA3B21CB20135002CA6
:101500002DB211DBA94518DB009B5B452A465346EB
:1015100031464046EADCD8F8002053469769294610
:1015200032464046B847E5E7029A1644039AA94571
:1015300002EB030436B224B2E6DA05B0BDE8F08F60
:101540004A462B46B94635464D4517461E46B2DD3E
:10155000304629463E464D4607468946AEE700BF1F
:1015600010B404682469A44610BC604730B4046811
:10157000BDF808500295A46BA44630BC604700BF7C
:1015800030B40468BDF808500295E46BA44630BC42
:10159000604700BF70B40468BDF90C60BDF810501E
:1015A00003960495246CA44670BC6047704700BF46
:1015B00010B582B0B0F90C200191016800920022B0
:1015C0000C6CB0F90A301146A04702B010BD00BF44
:1015D000704700BF01F003010129017606D00329FD
:1015E00004D0C28803894281838170470289C388FD
:1015F00042818381704700BF2DE9F0410568134E99
:101600006F6986B0B7420446BDF8308010D1013B07
:1016100013441BB20093CDF804800B46AD6A2046FC
:10162000A8472368DB6AB3420AD106B0BDE8F0815F
:10163000059304920391B84703A925680EC9E6E70C
:10164000204606B0BDE8F041184700BFAD150000C8
:101650002DE9F0410568124E6F6986B0B742044625
:10166000BDF830800FD1013BCDF804800B440092CF
:101670001BB2AD6A2046A8472368DB6AB3420AD191
:1016800006B0BDE8F081059304920391B84703A921
:1016900025680EC9E7E7204606B0BDE8F0411847C7
:1016A000AD1500002DE9F04F0568DFF858B06F69FF
:1016B00085B05F450646BDF93890BDF83CA00C46A4
:1016C000904615D11F19BC420CDACDF800A0214676
:1016D00001342D6A4B464246304624B2A847BC42EC
:1016E0003568F2DBEB6A5B4507D105B0BDE8F08FEA
:1016F0000393B8473568039BE4E7304605B0BDE87F
:10170000F04F1847AD1500002DE9F04387B099421E
:101710000546BDF93840BDF83C6025D0A24212D044
:101720000768DFF88080D7F81490C14532D18DE882
:1017300050002846BC6AA0472B68DB6A434524D189
:1017400007B0BDE8F083994202DD0846194603461A
:1017500028680E96C46B01335B1A1BB22846A44658
:1017600007B0BDE8F0436047A24202DD13462246BF
:101770001C4628680E96631C846B9B1A1BB2284675
:10178000A44607B0BDE8F0436047284607B0BDE86F
:10179000F0431847059304920391C84703A92F68A3
:1017A0000EC9C4E7AD1500002DE9F04FD0F800E0F8
:1017B000DFF89090DEF814B083B0CB450446BDF955
:1017C0003080BDF834A00D4617461E4631D1CDF805
:1017D00000A0DEF824B0294633463A462046D847D2
:1017E0002368CDF800A008F1FF323A44D3F824B0C2
:1017F000294612B233462046D8472368CDF800A0C8
:101800002946D3F820B03A4643462046D8472068B8
:10181000CDF800A0711E29444346056A09B23A4634
:101820002046A8472368DB6A4B4506D103B0BDE8D4
:10183000F08FD847D4F800E0C9E7204603B0BDE8F0
:10184000F04F1847AD150000F0B4002401254FF605
:10185000FF76094F076004710476C48104828476A0
:10186000C461C5758575457686824682C1800281D0
:1018700041818281F0BC70478C7800002DE9F04FE7
:101880008DB09CB2BDF86070BDF95C600B97C4EB85
:10189000C4377F001D4601360A923AB20492002DE9
:1018A000B2B29DF8583006900991089239DD03F0E4
:1018B0000102C4F1010403F0020324B2AB464FF06D
:1018C000000905920793002C08DB049B02339BB2AE
:1018D0001C44013D1BB224B204932DB21FFA89F8B7
:1018E0004FEA4807BFB2FB1C08F101061C4433B2A3
:1018F000AB42039324B240DC059B002B57D1079ADF
:1019000002F0FF0A002A3DD15D4505D0059B5BB979
:10191000BAF1000F1DD1AB46039BAB4209F101099F
:10192000D1DB0DB0BDE8F08F069B0B9A18680092D2
:10193000089A0999006AD3190A9A5944C8EB020215
:1019400006461BB212B209B20698B047BAF1000FB0
:10195000E1D0069E0B9A30680092089A0999D31933
:101960000A9A076ACBEB0101C8EB02021BB212B262
:1019700009B23046B847AB46CEE75D45D1D09DF8B9
:101980001CA0C3E7099B0B9E591E069B1868009676
:10199000089EAAB206EB42030A9EC8EB0101B21AE6
:1019A0001BB2066A069812B209B2B047ACE7099BAF
:1019B0000B9E591C069B18680096089ED0F820A024
:1019C0000698AAB206EB42030A9E4144B21A1BB221
:1019D00012B209B2D04792E72DE9F04F89B0D0F8A2
:1019E00000E0BDF94840BDF94CC0DEF81480059216
:1019F0009C422546A8BF1D4605EBD5777F102F4A90
:101A0000BDF850A06745A8BF67469045064647D138
:101A10001FFA87F98AB211460094CDF804A04FEA64
:101A200049029BB218461FFA82FB069101EB090896
:101A3000DEF81C100790CBEB00030FFA88F80D4678
:101A40001BB24146059A3046A847069B079ACDF837
:101A500008A0591E059B013C11444B44CBEB0404E8
:101A60001DB224B20123C9EB010109B22A46009339
:101A700030463B460194FFF701FF02202A463B46D1
:101A8000009001944146CDF808A03046FFF7F6FEDD
:101A900033680A4ADB6A93420AD109B0BDE8F08F85
:101AA00007930691C047D6F800E0079B0699AFE779
:101AB000304609B0BDE8F04F184700BFAD15000033
:101AC0002DE9F04F87B01746BDF9404000912546FB
:101AD000E91D059344BF2B4603F10E010268BDF8D2
:101AE000486053690294C91003912B49BDF94440E1
:101AF00001968B42824645D1002C3CDD029B3C4442
:101B00005E1EB6B24FF0000923B2049301364D4673
:101B1000029B002B28DD059B002403EB090806E04F
:101B2000EDB22B0604F1010411D4A6421CD0A1B2DF
:101B300011F0070F23B24FEA4505F1D1002BB8BFD2
:101B40000733DB10013418F803502B06EDD5009B4A
:101B5000D2F818B019443A4609B2019B5046D8470A
:101B6000A642DAF80020E2D1039B01379944049B96
:101B70003FB2BB42CCD1D36A074A934206D107B0E9
:101B8000BDE8F08F9847DAF80020B5E7504607B077
:101B9000BDE8F04F184700BFAD15000070B4BDF9A7
:101BA0000C60BDF91050BDF81440039604950594DF
:101BB00070BCFFF785BF00BF2DE9F04F91B08346A1
:101BC0000591C169BDF8680006909DF87400BDF8E4
:101BD0006C709DF870A0039002929946002900F065
:101BE000CC800B7A48680A68C3EB0903DBB2154660
:101BF00000EBC30230F83360D3780993BAF1010FD8
:101C000092F9053092F802800E9392F9064079D944
:101C1000BDF93830089323B20B93A94BDBF80020B1
:101C20000F93194653698B4240F0A280099B002B09
:101C300053D0BDF808300C930021234407910D9335
:101C40000F460C46A946B8F1000F3FD0BDF81C1056
:101C50000B9BBDF80C000297CB1813FB00F30C98FC
:101C600003440D981BB2014404930BB20A93002560
:101C700005E00135EBB264009845E4B223D9029B3C
:101C80002B44590703D1731C19F806409EB2230652
:101C9000EFD5089BE918059B11FB0AF1BAF1010F7A
:101CA000194402D1039B012B1ED0069B0193039B79
:101CB0000093D369049A1F4609B253465846B84761
:101CC000DBF80020D5E7029F4744FFB2079B099944
:101CD00001330793DBB29942B5D8D36A0F9A934286
:101CE00041D111B0BDE8F08F0E9B05995918936949
:101CF0000A9A29441F4609B2069B5846B847DBF8A2
:101D00000020B6E7039B012B82D800230B93089396
:101D100083E70799099A0131013A49B212F0FF02AB
:101D20000791099260D1069A4A454F4617D0BAF1F9
:101D3000010F03D1039A012A00F0B5800A9A08988E
:101D400002EB8201039AD2008DE88400084401B2BC
:101D5000DC69029A53465846A047DBF80030DB6A3C
:101D60000F9A9342BDD0584611B0BDE8F04F1847C6
:101D700058469847DBF8002058E7BBF90A30059928
:101D80008B42AEDDBBF90C3002988342A9DD0623FD
:101D900013FB0A13002BA4DD039B00EBC303002BF2
:101DA0009FDD9BF81A3033B9B9F1AF0F84BF09F149
:101DB00001035FFA83F9424ADBF800300F921146C3
:101DC0005A698A426AD1BDF8142008920522099204
:101DD000002207921FFA8AF20A92CDF830900FFA89
:101DE0008AF2B946039F05920799BDF83040089DD5
:101DF0000522104610FB04120A98324C064608468B
:101E000001FB0651A65C15FA80F209B212B20491E8
:101E10000B92082400251CE0BAF1010F01D1012F1B
:101E200024D0069A0192029A009705FB0722D3F864
:101E30001C800499059B12B25846C047DBF800305D
:101E4000013C013514F0FF046DB24FEA56063FF431
:101E500060AFF007E0D4069A4A45F1D0BAF1010F1D
:101E600001D1012F0ED0CDF80490DCE7029AD3F80F
:101E700018800B99069BAA1812B25846C047DBF887
:101E80000030DDE7029AD3F818800B99AA184B4668
:101E900012B25846C047DBF80030D1E758469047A9
:101EA000DBF800308FE70899CDF8009005311C6A07
:101EB000029A082309B25846A047DBF800304EE7E3
:101EC000AD150000DC780000F0B5C36985B00446AC
:101ED0003BB30A296FD00D294FD01A7A91424CD3C7
:101EE000987A884249D38A1A5D68D2B205EBC20556
:101EF000AA78002A56D0E878002853D0607E0028BF
:101F00003ED095F905E0B4F90E00A67DB4F90A704B
:101F1000724406FB0202BA4269DCE77DB4F9102084
:101F200034E00A295CD00D2927D0427E002A50D007
:101F3000B0F90E00A57DB4F90A60062212FB050275
:101F4000B242E67D42DD228AE38102EBC60212B292
:101F500018462282B4F814E0678A03960B4602956D
:101F600001468DE880402046FFF726FEA37DE289EA
:101F700003EB430302EB4303E381012005B0F0BD13
:101F8000A67DE77DB4F90E00B4F91020B4F814E092
:101F90000397678A02960B468DE8804001462046EB
:101FA000FFF70AFE2979E389A27D012001FB0233B4
:101FB000E38105B0F0BD0022C2811A7BC17D038A96
:101FC00001FB02330382012005B0F0BDB4F91020FB
:101FD000C0E7857DC67DB4F91020B0F90E00B9E7E1
:101FE000028AC17DC38102EBC1030382C5E70020E1
:101FF000E0811B7B228AE77D03FB072212B222824B
:10200000C4E700BF11B18175C175704701218175A9
:10201000C1757047F0B50C1EBDF8146034DBB0F923
:1020200006701919B942C4BF3B1B1BB2002BA64650
:102030001CDD002A1146B8BFD11D02F00705CC10E7
:10204000826A012007FB04E1A840012E0A44C0B2C5
:102050001ED00CD3022E09D1013B12FA83F3013AB0
:1020600012F8011F41409A421170F9D1F0BDC043EE
:10207000013B12FA83F3C0B2013A12F8011F01408A
:1020800093421170F9D1F0BD23441BB20024C6E77E
:10209000013B12FA83F3013A12F8011F01439A42FD
:1020A0001170F9D1F0BD00BF00291EDB30B4B0F9CA
:1020B0000A408C4218DD002A16DBB0F90C4094422D
:1020C00012DD047E022C54D0032C4CD0012C06D1FE
:1020D0005140C4884A405140013C611A09B2012B69
:1020E0002DD017D3022B01D030BC7047002AB0F995
:1020F0000630856A1446B8BFD41D44F3CF0404FBF0
:10210000031102F007026B5C012000FA02F25A4050
:102110006A54E9E7002AB0F90630856A1446B8BF68
:10212000D41D44F3CF0404FB031102F007026B5CDF
:10213000012000FA02F223EA02026A54D4E7002ADC
:10214000B0F90630856A1446B8BFD41D44F3CF04F5
:1021500004FB031102F007026B5C012000FA02F29B
:102160001A436A54C0E70489013C641A114622B23A
:10217000B5E7C5880489013D013C691AA21A09B274
:1021800012B2ACE72DE9F041079E9DF91880089D39
:1021900004461F46FFF758FB0D4B0E480E4984F8C6
:1021A0003380FF22002F08BF1F4684F82F20002312
:1021B00084F8302084F8312084F83220206066656D
:1021C000A565676221662362A3622046BDE8F081AF
:1021D0000888FF1FFC7D00000000023810B504468F
:1021E000806A034B236008B104F0D2FD204610BD85
:1021F000FC7D0000F8B5436ADBB190F82C20012586
:10220000AA4083F83B2083F85E5083F85D50044673
:10221000406A03680E461B6800219847606A03689D
:1022200031461B6898472946606ABDE8F840FFF7C9
:102230008DB8C26BC56C1368046A23EA050313608A
:102240004CB122684FF00043D3625163D36A002B34
:10225000FCDA936BF8BD836B466B0825802410E095
:102260003768426C3A4332601F68826C3A431A60A6
:102270001A68876C013D22EA07024FEA54041A608B
:1022800007D02142ECD13268476C22EA0702326063
:10229000EAE7F8BD70B50446406A0D4600282BD029
:1022A000616DFEF7F3FE002D20460CBFA621A7218D
:1022B000FFF7A0FF606A20B1A16DBDE87040FEF796
:1022C000E5BE216C226D0868236A02430A6093B15F
:1022D000DA7A82B1D00703D5224A99691160DA7A95
:1022E000910703D5204AD9691160DA7A520702D5DD
:1022F0001E4A1B6A136070BD236A002B2BD0D97A4B
:10230000226EE1B172B6D97ACE0706D51848D968DF
:102310000668314099610160D97A880706D5154869
:10232000196906683140D9610160D97A4E0705D52F
:1023300011485969066831401962016062B61B682C
:10234000D968914207D00D4818600D49DA6042F013
:10235000804018611960226C216D136823EA010323
:102360001360A0E700E100E004E100E008E100E024
:1023700080E100E084E100E088E100E001403F000E
:1023800000003F80436A2DE9F04105460E46904625
:10239000002B3ED090F82C100124A14083F83B1074
:1023A00083F85E4083F85D40406A036800211B6843
:1023B00008F1FF379847FFB2B8F1000F23D0374438
:1023C000A046013E686A16F8011F03681B6898471B
:1023D0000134B742E4B216D0202CF3D10121686A4F
:1023E000FEF7B4FF95F82C206B6A520083F83B206F
:1023F00083F85E8083F85D80686A036800211B684B
:1024000098470124DEE7686A0121BDE8F041FEF744
:102410009DBFC26BC16C136823EA010306EB08047D
:1024200013604FF00048A6420ED02B6A16F801EB5D
:1024300063B11A68C2F82C80C2F834E0D36A002B6A
:10244000FCDAA642936BF0D1BDE8F081AB6BD5F816
:1024500034C008208021DCF800206F6C1EEA010FD8
:1024600014BF3A43BA43CCF800201A68AF6C3A4321
:102470001A601A68AF6C013822EA07024FEA51016C
:102480001A60E8D1CFE700BF2DE9F041044686B0DD
:10249000806A9DF830801E460F461546B4F9083014
:1024A000002800F04B81DA1D48BF03F10E02B4F999
:1024B0000630D21003FB02F2002104F029FFB4F928
:1024C0000820202A00F3A780B4F90610A74B0120AA
:1024D000203A733902EBD27201EBD1714FF0200E2A
:1024E000029073208DE8014042F34F0241F34F0107
:1024F0002046FFF753FB606A84F82D70002800F037
:102500005181002D40F09F80B4F90830202B14BF7A
:102510003D253C2584F82C50B8F1000F40F09A80FE
:1025200006B394F93300002818DBC0B2012101F092
:1025300031F9012194F8330001F026F9012001F06E
:1025400053F9002194F8330001F01EF90A2001F03C
:102550004BF9012194F8330001F016F9606A002864
:1025600000F09880616DFEF791FD042280492046BD
:10257000FFF708FF217A0139C9B22046FFF73AFE7A
:102580007C4904222046FFF7FDFE94F92D30012BF3
:1025900014BF142110212046FFF72CFE0422764997
:1025A0002046FFF7EFFEB4F906308F22802B84F827
:1025B0005C2000F0A580602B00F0B1800225DA21BC
:1025C0002046FFF717FE29462046FFF713FE81211C
:1025D0002046FFF70FFE94F85C102046FFF70AFE36
:1025E000D9212046FFF706FE94F92D30012B14BFA8
:1025F000F12122212046FFF7FDFD204606225F49FA
:10260000FFF7C0FE606A58B3A16DFEF73FFD0120E1
:1026100006B0BDE8F081B4F90610594B0120403AEC
:1026200052394FF0400E029002EBD272522001EB71
:10263000D1718DE8014042F34F0241F34F01204632
:10264000FFF7ACFA57E76DB284F82C50B8F1000FE1
:102650003FF466AFFEF7D0FC002E3FF47FAF60E79B
:10266000216C226D0868236A02430A6073B1DA7A2A
:1026700062B1D00703D5434A99691160DA7A9107AC
:102680006FD4520702D5404A1B6A1360012006B07E
:10269000BDE8F081236A002B2BD0D97A226EE1B1FC
:1026A00072B6D97ACF0706D53848D9680568294067
:1026B00099610160D97A8E0706D535481969056890
:1026C0002940D9610160D97A4D0705D5314859694A
:1026D000056829401962016062B61B68D968914299
:1026E00007D02D4818602D49DA6042F0804018610B
:1026F0001960226C216D136823EA0103136034E72B
:10270000B4F90830402B7FF459AF94F92D30012BE8
:1027100014BFCF239F2384F85C3012254FE7B4F910
:102720000830102B7FF44AAF94F92D30012B14BFE1
:10273000AF23102384F85C30022540E7DA1D48BF40
:1027400003F10E02B4F90630D21003FB02F2104678
:10275000059204F015FBA06200283FF459AF059ADA
:10276000AAE60F4AD9691160DA7A8AE74C7E00003E
:102770002C80000030800000348000003880000091
:102780004080000000E100E008E100E080E100E0BE
:1027900084E100E088E100E001403F0000003F806C
:1027A00004E100E0012194F83100214F00F0F2FF34
:1027B00094F83200012100F0EDFF94F9312094F9F2
:1027C000323057F83220E26357F83330206A2364FE
:1027D0000125E56425651A682A431A6048B1B8F1F5
:1027E000000F3FF439AF02F06FFC002E3FF4B6AE9D
:1027F00097E6294694F82F0000F0CCFF294694F87C
:10280000300000F0C7FF94F92F2094F9303057F8CA
:102810003220626357F833306564A5641A68A36395
:1028200022F001021A60002E3FF498AE79E600BF54
:1028300030830000B0F90820D31D48BF02F10E0319
:10284000B0F90620806ADB1002FB03F2002104F0DD
:102850005FBD00BFF0B50029BDF814502EDBB0F904
:102860000660B1422ADA002A59DBB0F90870144632
:102870001C44BC42C4BFBB1A1BB2002B1EDDD2B22B
:10288000D408D0F828E016FB041112F00702DBB2DE
:102890000EEB010421D0C2F10807FAB2374F934280
:1028A000BF5C0CD2C3EB020CFF2646FA0CF6012DDE
:1028B00007EA06073FD005D3022D36D0F0BD012D23
:1028C00039D030D21EF8016026EA07070EF80170F1
:1028D0009342F3D3B0F906100C449A1AD2B2072AE5
:1028E00010D9022D36D0002D14BFFF260026134626
:1028F0002670083BB0F90610DBB2072B0C44F7D862
:1029000002F00702002AD9D01D4B012D9B5C1DD07F
:1029100017D3022DD2D1227853402370F0BD134437
:102920001BB20022A1E7022D25D11EF801607740DD
:102930000EF80170CCE71EF8016037430EF8017005
:10294000C6E7227822EA03032370F0BD22781343FE
:102950002370F0BD11462378DB4323700839B0F9AA
:102960000630C9B207291C44F5D812F00702A5D0D9
:10297000034B9B5CCFE73444AFE700BFEC7D000026
:10298000DC7D000070B4047EBDF80C50022C18D021
:10299000032C1FD0012C0BD0002A03DBB0F9084018
:1029A000944201DC70BC7047039570BCFFF732BBEA
:1029B000C4880395013CA41A0A4621B270BCFFF7F3
:1029C00049BF0689C488013E641AB21AE41A12B2D9
:1029D00021B2E1E704890395E41A641A114622B290
:1029E00070BCFFF737BF00BF70B4057EBDF80C6048
:1029F000022D1AD0032D12D0012D03D0039670BCE6
:102A0000FFF728BFC488E41AA41A0A4621B2002A94
:102A100003DBB0F90840944213DC70BC70470489B2
:102A2000013C641A114622B2F1E7C4880589039675
:102A3000013CAD1AED1A621A11B22AB270BCFFF74E
:102A400009BF039670BCFFF7E5BA00BF2DE9F84354
:102A50000446406A002863D0616DFEF717FB05222B
:102A600074492046FFF78EFCA1790139C9B220468E
:102A7000FFF7C0FBB4F90820E588A66AD31D48BF5C
:102A800002F10E03DB10626A15FB03F51FFA85F8ED
:102A9000002A7BD094F82C300125AB4082F83B30E3
:102AA00082F85E5082F85D50606A036840211B68BE
:102AB00008F1FF379847BFB2B8F1000F23D0374471
:102AC000A846013E606A16F8011F03681B68984714
:102AD0000135B742EDB216D0202DF3D10121606A45
:102AE000FEF734FC94F82C20636A520083F83B20F4
:102AF00083F85E8083F85D80606A036840211B680C
:102B000098470125DEE70121606AFEF71FFC606A35
:102B1000002800F08D80A16DBDE8F843FEF7B6BA3D
:102B2000236A002B2BD0D97A226EE1B172B6D97A02
:102B3000CE0706D54048D9680568294099610160EB
:102B4000D97A8D0706D53D48196905682940D961AC
:102B50000160D97A480705D539485969056829407F
:102B60001962016062B61B68D968914207D0354886
:102B700018603549DA6042F0804018611960226CB3
:102B8000216D136823EA0103136068E7E26BE36CCD
:102B90001168276A0B4306EB080913604FF0004EDB
:102BA0004E450DD016F801CB2FB33A68C2F82CE091
:102BB000C2F834C0D36A002BFCDA4E45936BF1D1D6
:102BC000226C236D11680B43136097B1FB7A83B1BC
:102BD000D90703D51D4BBA691A60FB7A9A0703D54A
:102BE0001B4BFA691A60FB7A5B0702D5194B3A6AEC
:102BF0001A60BDE8F883A36BD4F8348008208021E4
:102C0000D8F80020656C1CEA010F14BF2A43AA43C0
:102C1000C8F800201A68A56C2A431A601A68A56CC7
:102C2000013822EA05024FEA51011A60E8D1B7E7FC
:102C3000276AC5E7E47D000080E100E084E100E070
:102C400088E100E001403F0000003F8000E100E03B
:102C500004E100E008E100E0F8B50E4671B17AB198
:102C60000746144600253B6816F8011B1B683846CA
:102C70009847013C0544F6D12846F8BD0846F8BD02
:102C80001046F8BD00B5064A036812885B6883B039
:102C900001A9ADF804200222984703B05DF804FBB7
:102CA00000830000F0B507468BB0002A33D0012A1C
:102CB00008BF0A2251B3212400E0F4B2B1FBF2F5BF
:102CC00002FB1511C8B2092900F1300198BFC8B242
:102CD0000AA988BF3730214488BFC0B201F8240C4C
:102CE000661E2946002DE8D133B1013CE4B20AAB9F
:102CF00023442D2203F8242C3B6801AA11195B6898
:102D00003846C4F1220298470BB0F0BD30228DF84E
:102D100025202124E8E70368C9B21B6898470BB057
:102D2000F0BD00BF374A384913681B06FCD40B6856
:102D300013F08003F8D172B634490A78002A5FD0C4
:102D4000334A3448F0B4344C176806682568D468B0
:102D50000C303E44143200681268304F35442C4425
:102D600020440244C2F34E022D4E2E482E4D2F4CCD
:102D700042F400423A60376806682D682C4A24689D
:102D80000C303E44006812682A4F35442C442044DD
:102D90000244C2F34E02284E2848294D294C42F4E1
:102DA00000423A60376806682D68274A24680C306C
:102DB0003E4400681268254F35442C4420440244A8
:102DC000C2F34E02224E2348234D244C42F40042CB
:102DD0003A60376806682D68214A24680C303E4402
:102DE0000068126835442C4420440244C2F34E0269
:102DF0001C4842F4004202600B7062B6F0BC70479F
:102E000062B6704724B0034024B00B408E93FF1F7E
:102E100038B003403CB0034040B003402CB0034006
:102E200058B003405CB0034060B0034064B003405E
:102E30006CB0034030B0034038B00B403CB00B40A6
:102E400040B00B4044B00B404CB00B402CB00B409A
:102E500058B00B405CB00B4060B00B4064B00B400E
:102E60006CB00B4030B00B4030B42948294A2A4B93
:102E70002A4D6024E121047011701B78284C082B26
:102E800030D00A2B2748284937D00C2B0CBF1522ED
:102E90003D2212232A60236002600B60234B2449E9
:102EA0001B78244ABBB101230B601360224B2349DA
:102EB0001B78234A012B26D9042B0FD9082B1ED9A6
:102EC000102B94BF862387230B6013601D4B0122B8
:102ED0001A7030BC70470B601360E7E784230B6007
:102EE0001360F3E700F58E200F4908300122132309
:102EF0002A60236002600B60D0E71922F7E7852380
:102F00000B601360E2E780230B601360DEE700BF15
:102F10000040074001400740E088FF1F08B0034021
:102F20000CB0034008B00B400CB00B409193FF1F56
:102F300020B0034020B00B40E188FF1F24B00340C5
:102F400024B00B408E93FF1F0C2830B417D91023E8
:102F5000984228BF18461C46104A114D1178181A7D
:102F60008C42287018D00F4913700B7823B10E498A
:102F70000E4A00230B60136030BCFFF775BF0A28B0
:102F800002D90C231C46E7E7082802D90A231C466D
:102F9000E2E708231C46DFE730BC7047E088FF1FEC
:102FA0008D93FF1F8E93FF1F24B0034024B00B406E
:102FB00028282FD8334B2DE9F0411E5CFF2E2BD053
:102FC000314B1B78002B2AD132062CD472B62F4DF0
:102FD0002F4C2F46012326602B7062B672B62368F1
:102FE0001B060CD43B781BB9F4E72B78002BF1D0EF
:102FF00062B601F02DFD72B623681806F5D5254B93
:103000001B6800222A7062B6234A107843FA00F047
:10301000BDE8F081002070470020BDE8F081FFF797
:1030200081FE3206D2D572B61C4DDFF87C801C4C76
:1030300006F04007FFB206F03F06D8F80030DFB1D7
:1030400023F01003C8F8003001232660134A2B70C8
:1030500062B672B6236819060CD413781BB9ECE774
:103060002B78002BE9D062B601F0F2FC72B623682F
:103070001B06F5D50B4BC3E743F01003C8F800302F
:10308000E2E700BF048300008E93FF1F9093FF1FB1
:1030900000B0034010B003408D93FF1F8F93FF1FBC
:1030A00000B00B4010B00B400CB00B400A4A0B496B
:1030B000136843F4805313600B7843B9084BC02264
:1030C0001A70084B80F30C0000B218807047044B54
:1030D00080221A70F5E700BF2C8004409193FF1FF7
:1030E00021C00C4000C00C4008B5FDF7D5F9FDF734
:1030F000E5FD01F0ADFCFAE7844641EA000313F078
:1031000003036DD1403A41D351F8043B40F8043BEE
:1031100051F8043B40F8043B51F8043B40F8043BB1
:1031200051F8043B40F8043B51F8043B40F8043BA1
:1031300051F8043B40F8043B51F8043B40F8043B91
:1031400051F8043B40F8043B51F8043B40F8043B81
:1031500051F8043B40F8043B51F8043B40F8043B71
:1031600051F8043B40F8043B51F8043B40F8043B61
:1031700051F8043B40F8043B51F8043B40F8043B51
:1031800051F8043B40F8043B403ABDD2303211D3F1
:1031900051F8043B40F8043B51F8043B40F8043B31
:1031A00051F8043B40F8043B51F8043B40F8043B21
:1031B000103AEDD20C3205D351F8043B40F8043BF1
:1031C000043AF9D2043208D0D2071CBF11F8013BEF
:1031D00000F8013B01D30B8803806046704700BFB5
:1031E000082A13D38B078DD010F003038AD0C3F1C4
:1031F0000403D21ADB071CBF11F8013B00F8013BA6
:1032000080D331F8023B20F8023B7BE7043AD9D364
:10321000013A11F8013B00F8013BF9D20B78037039
:103220004B7843708B7883706046704708B5104CBC
:1032300008E0236859050DD423681A050FD42368C4
:10324000DB0411D423685803F3D500F067FC23682E
:103250005905F1D501F058FD23681A05EFD501F0A5
:10326000E9FD2368DB04EDD501F07AFEEAE700BF53
:103270003480044008B5FFF7D9FF00BF014B10228E
:103280001A80704700200540704700BF094908B503
:103290000B6830B16A461844A2F58052904202D2BF
:1032A0000860184608BD03F03DFD0C2303604FF095
:1032B000FF3008BDE488FF1FFEE700BFF0B44D1EDD
:1032C0002E46002400E00134B0FBF2F302FB1300B1
:1032D000092800F130078ABF3730F8B2C0B206F8CB
:1032E000010F1846002BEED10A1953704CB110781B
:1032F00015F8016F28700133E01A834202F8016962
:10330000F5DB0846F0BC7047704700BF10B40F4BA8
:1033100053F8302092F880422CB1012369B182F831
:10332000803010BC704703EBC0035B681A6841B97A
:1033300022F002021A6010BC704782F8003110BC03
:10334000704742F003021A6010BC704730830000DF
:103350001C4A02EBC00301295B6811D004291BD071
:1033600052F83000002280F8802229B1022920D0B2
:10337000032922D01A6070474FF480721A60704798
:1033800052F830004FF4A27280F880121A601A6866
:1033900022F020021A60704752F830104FF4A272E7
:1033A000012081F880021A601A6842F020021A6037
:1033B000704740F203121A6070474FF481721A602E
:1033C000704700BF30830000212848D8F8B5042A90
:1033D00044D8DFE802F0484B4E0345004FF4102676
:1033E0002B4B03EBC0030D465C68216811F4E061D0
:1033F00048D0284B284A2949C3F89C2104F140426F
:103400002748C3F8A411A2F59221264FC3F8A001C2
:103410007C292548C3F8A871C3F8AC012CD9A2F5C2
:1034200094237C2B2AD9A2F596237C2B28D9A2F5AC
:1034300098237C2B29D9A2F59A227C2A27D81B48CD
:1034400072B6236823F4702343F08072C4F38401BE
:103450001643236040F82150266062B6F8BD7047DD
:103460004FF43026BCE74FF40026B9E74FF440266E
:10347000B6E74FF42026B3E70D48E1E70D48DFE754
:103480000D48DDE7FFF764FFB3E70C48D8E7F8BD68
:10349000308300000082FF1FD187FF1F7987FF1F45
:1034A000A587FF1F4D87FF1F2187FF1FC089FF1FB3
:1034B000E888FF1F2089FF1F7089FF1FA089FF1F59
:1034C0001A4B03EBC00010B4426802F14043A3F56D
:1034D00092217C2923D9A3F594217C290DD9A3F528
:1034E00096217C291FD9A3F598217C2919D9A3F508
:1034F0009A237C2B11D80E4C00E00E4C72B6136848
:103500000D4823F08773C2F3840123F4803343F022
:103510008073136044F8210062B610BC7047074CFA
:10352000ECE7074CEAE7074CE8E700BF3083000010
:10353000C089FF1F2089FF1F09330000E888FF1F93
:10354000A089FF1F7089FF1F30B4054B054D064C45
:10355000002210211A602A602060196030BC704778
:1035600014D0034004D0034000D00340282838B5CD
:103570002ED0002904464FDD5F4B1B78012505FA4C
:1035800003F28A4202D8212837D938BD0338C2B2A3
:10359000012A3AD9202C4AD0192C48D0574A12680F
:1035A00002FB011222FA03F31D2800F29B80DFE8E0
:1035B00000F0928B847D9999766F99999999999950
:1035C00099999968615A53994C99999999999945FA
:1035D000494B1B780B2B08D90C2B1CBF0C3B1941FA
:1035E0000846BDE83840FFF761BDC3F10C039940C0
:1035F0000846BDE83840FFF759BD2946FFF786FE6B
:103600002946BDE83840FFF7A3BE3D4A126802FBD9
:10361000011222FA03F3C7E72128B6D80021FFF7E9
:1036200075FE20460121BDE83840FFF791BE354ABE
:10363000126802FB011222FA03F3B5E73249334A5A
:103640000B604FF45173136038BD3149314A0B6040
:103650004FF45173136038BD2F49304A0B6040F26C
:103660004443136038BD2E492E4A0B6040F2444358
:10367000136038BD2C492D4A0B6040F2444313605F
:1036800038BD2B492B4A0B6040F24443136038BDD0
:1036900029492A4A0B6040F24443136038BD284947
:1036A000284A0B6040F24443136038BD2649274A3C
:1036B0000B6040F24443136038BD2549254A0B6036
:1036C00040F24443136038BD2349244A0B604FF451
:1036D0005173136038BD2249224A0B604FF4517375
:1036E000136038BD212C3FF650AF7F29D4BF002195
:1036F0000121204693E700BFC889FF1F08800340CF
:103700000890034008800B4010800B4048A0044004
:1037100018800B404CA004401880034008B00440BF
:103720001080034004B004404080034018C00440AF
:103730003880034014C004402880034010B0044087
:10374000208003400CB004403080034010C004408F
:10375000488003401CC0044018900340349004404B
:10376000109003403090044038B1102828BF10203A
:10377000044AC3B2107813707047024A01231078CC
:1037800013707047C889FF1F212801D8FFF7BEBDFD
:10379000704700BF212801D8FFF7DABD704700BF8E
:1037A00072B60D490D4B0E4A1B680868126862B666
:1037B000520102D5322B88BF01300A49C3F58C3340
:1037C0004FF47A7203F23F13A1FB031302FB00F0E4
:1037D00000EB1310704700BF9493FF1F18E000E048
:1037E00004ED00E0398EE3382DE9F843054672B662
:1037F000214F224B224A1B683C68126862B6520174
:1038000002D5322B88BF0134A5B3C3F58C331D4ECE
:10381000DFF86890DFF8688003F23F134FF47A72A4
:10382000A6FB031302FB04F404EB131472B6D9F8DD
:1038300000103A68D8F800E062B6C1F58C3303F2A4
:103840003F13A6FB03031EF0806FC4EB13134FF46A
:103850007A7002D0322988BF013200FB0233B3F5FF
:103860007A7F04D3013D05D004F57A74DEE701F0D8
:10387000EFF8DBE7BDE8F8839493FF1F18E000E062
:1038800004ED00E0398EE338F8B52D4B2D49DFF813
:10389000D0E0DFF8D0C02C4E2C4D2D4C2D4A2E4FB1
:1038A0004FF4000018604FF0807018604FF0007007
:1038B00018604FF0806018604FF0006018600020C2
:1038C0000860282348F6FF71CCF80010CEF80030CD
:1038D000336013602B6023603B60B3629362092204
:1038E00045F8242CC4F8D80F05F57F65C7F8D41F18
:1038F00007F5FF2707F5FA67C6F8F83F2B6006F5CE
:10390000FF26C4F8D42F05F5FD2504F5FF24386003
:1039100006F2F4761148316005F5FF6504F5FD64A3
:103920002B6023600260FFF79FFA1920FFF75CFF0E
:1039300000F05CFE40F21310BDE8F840FFF754BF02
:1039400008E100E004800340148003402480034029
:103950002C8003401C8003403480034000800B40D7
:103960000C80034008800340431E032B14D872B61A
:103970000A4951F8230068B170B4094C058834F83D
:103980001320466841F82360521B24F8132062B6C6
:1039900070BC704762B6704700207047F093FF1FFD
:1039A0007096FF1F013803280BD872B6074B53F8E7
:1039B000203043B100205B680130002BFBD162B6A0
:1039C0007047002070471846F9E700BF4494FF1F76
:1039D00030B472B62B4A13781D0706D52A4B196AE4
:1039E000002936D0996A002941D053781C0706D5A2
:1039F000254B196C00293ED0996C002939D0937859
:103A0000190705D5204B196E002936D0996E89B15A
:103A1000D3781B0707D51C4BD3F880207AB3D3F893
:103A2000882011213AB162B6184B00221A7030BCBE
:103A300000F07EBE0D21154C154D227843F8315013
:103A400003EBC1030830013A5860227062B630BC03
:103A5000704704220D4C0F4D217843F8325003EB90
:103A6000C20308304A1E5860227062B6EFE7052193
:103A7000E1E70921DFE70822ECE70C22EAE7102260
:103A8000E8E700BF688400000080FF1F6D94FF1FFF
:103A9000C800400088004000431E032B1DD81B4A6D
:103AA000400140F0100030B4104472B6184CE25C93
:103AB000032A1BD8DFE802F00212151703220D8833
:103AC000E25410F0080F14BFC823882343EA0543CB
:103AD00008310360416062B630BC70470830022292
:103AE000EDE70522EBE708300422E8E7094A52F83F
:103AF000230038B1084A52F82300416042F82310ED
:103B000062B6E9E742F82310034AF7E70080FF1F97
:103B10007C94FF1F4494FF1F5494FF1F2DE9F04F26
:103B2000DFF80CB3DFF80CA387B044E0AB4F4FEAEB
:103B3000930807EBC809013ED9F8042003F00803F5
:103B4000F6B2A2F1080003F0FF04002B40F002815E
:103B500057F838301B0C99B222F8081C002B00F0E3
:103B6000F0809F4B22F8064C42F8044C53F8262074
:103B7000002A00F0C5829B4D55F8263058609A4CBB
:103B800045F8260034F81630194424F8161000F0D1
:103B9000AFFD002800F0AD82944A954B19F0080F54
:103BA00000F1080018BF1346C9F8040047F8383080
:103BB00008238BF800309BF80040E4B261071AD567
:103BC0008C4B1B78A3B18C490A7802F0FF0322B119
:103BD000013BDBB20B7003B900BE88490A7802F0E2
:103BE000FF032AB1013BDBB20B70002B00F05782C0
:103BF00004238BF8003004F0080303F0FF02002BCD
:103C000000F0CC809AF80030DBB21E098ED19C08FF
:103C1000DFF8C89159F8342009EBC401C2F38302DC
:103C2000013A49680C2A00F28880DFE802F07C7CC7
:103C30008686868686864786868607000868704D53
:103C40004A68704F704E286081B240F28160674BC5
:103C50006A604FF0010E0022814249F834303A6028
:103C6000C9F81020C9F8182086F800E05B4C00F273
:103C7000E380B1F5D06F80F04683B1F5817F00F02D
:103C8000FC8200F28D82802900F07783822940F047
:103C9000FA82A98801F07F01042900F2F4825B48CE
:103CA0005B4C89000844227062700278930740F1EF
:103CB000588484F800E04FF0020E42E3514F3A6816
:103CC00032B3544B504E5449188834780D784028FC
:103CD000864645F0020828BF4FF0400E002C84F0C5
:103CE00001043470CEEB00000CBF8824C82409EB1B
:103CF000C80680B285F0010544EA0E44726018805F
:103D000049F8384072440D70002800F045813A604F
:103D10003B4B1A88B2F5A06F0FD100219A785970E9
:103D20003E4B1A7009E0364A108842F22102904256
:103D300000F037812D4A49F83420394A01231370A5
:103D400036E72A4A2A4B19F0080F18BF134647F8DE
:103D500038302DE700F0ECFC324A334952F8263077
:103D6000002B00F0D18158688C5D42F8260003F1E9
:103D70000802C9F80420032C05D8DFE804F02C025F
:103D8000292602228A551A8819F0080F0CBF8823A9
:103D9000C82343EA024347F8383009E7E00700F157
:103DA0008181210600F1F281A20706D51F4A204930
:103DB00013780220DBB213700870E30602D51C4BA7
:103DC00010221A7007B0BDE8F08F04228A55DAE796
:103DD00005228A55D7E703228A55D4E70080FF1FC2
:103DE000F093FF1F9C93FF1F7096FF1FC8004000B9
:103DF000880040007894FF1F0194FF1F8094FF1FEC
:103E00006494FF1F9893FF1F0094FF1FC02007407A
:103E10007094FF1FAC93FF1F6C94FF1F9820074006
:103E2000942007404494FF1F7C94FF1F8820074084
:103E3000802007409020074042F22100814200F09C
:103E40002A8100F2D880B1F5086F00F07682B1F5D2
:103E5000106F40F01882226AB349A87808701206E1
:103E600000F13A83D9F82820B049130600F10C83F9
:103E7000D9F83020AD49150600F10183D9F8382072
:103E8000AA49140600F1F682D9F84020A749100685
:103E900000F14A83D9F84820A449120600F13F8373
:103EA000D9F85020A149130600F13483D9F85820DD
:103EB0009E49150600F12983D9F860209B49140614
:103EC00000F11E83D9F868209849100600F1138389
:103ED000D9F870209549120600F10883D9F87820A6
:103EE0009249130600F1FD82D9F880208F4915060A
:103EF00000F13183D9F888208C49140600F125831C
:103F0000D9F890208949100600F11983D9F8982032
:103F10008649120600F10D838548864A864901903C
:103F20008648874D874C0497002305960295804666
:103F30000F4616461D460394306828B1446800F0C9
:103F4000F7FB2046002CF9D100233360029B386830
:103F50001A46002342F8253028B1446800F0E8FBF7
:103F60002046002CF9D100223A60019A98F80030DE
:103F70001146002241F8042B039A0191023B4FF0B5
:103F8000000122F81510032B00F22B81DFE813F05B
:103F90007001250170012501BEF1400F18BF0022FC
:103FA000B5E6694A0D784878157050708D78C878F4
:103FB0009570D07010680D79157186284D798979C2
:103FC0005571917100F09B816049614E0A7830789B
:103FD00082F00105002842F002020D700CBF88211A
:103FE000C82149F8321009EBC20280F0010000211B
:103FF000307051609EE642F22120814240F0CB8138
:10400000544B554C5549A8781D682560CDF804E0FF
:104010000870002002908046844604464B490D7883
:1040200045F0020E09EBCE030393019B002B039B8B
:104030005C600CBF8824C82444EA080385F00104AE
:1040400049F83E3032700C70DFF8E0E0404BDFF8AA
:10405000FC80002840F01E81BCF1400F1BD144F0D1
:10406000020C09EBCC03029CDFF8C0E05C60002A84
:1040700040F02681020442F088029DF804304EF898
:104080003C20044433700D702346402803D10020A7
:10409000334A3B601080334A012313704DE600F031
:1040A000B3FCA5E5214B2F4828491A614FF0020EB9
:1040B00080F800E02C4F0A702C49196099602C4E52
:1040C0002C4D2D4C9A610D213970FF213170DFF894
:1040D000B8E029702270294D294A8EF800109F27D8
:1040E000012406F8047C5D600470DA6007B0BDE866
:1040F000F08F244A47F8380013780133137057E5DE
:1041000043F826000E4D3AE58B5D032B00F2F0805C
:1041100001A252F823F000BFB13B0000B13B000008
:10412000D5410000CF4100007894FF1F0080FF1FA1
:104130005494FF1FF093FF1F4494FF1F7C94FF1FB4
:104140009C93FF1F7096FF1F7896FF1F6C94FF1FB4
:104150000094FF1F9493FF1F8096FF1F9094FF1FF2
:10416000AC93FF1F94200740C02007408800400008
:10417000882007408020074098200740B093FF1F09
:104180000494FF1F6D94FF1F8C200740C149C24B50
:1041900080220D2008701A70A2077FF50EAE05E68A
:1041A00040F20232914240F0EE80A98801F07F0196
:1041B000042968D86A88002A65D1B648CDF804E099
:1041C00089000844017841F00201017021E70123D0
:1041D0008B55EDE400238B55EAE44FF0010388F89A
:1041E00000300135042D06F1040607F1040708F13B
:1041F00001087FF4A1AEA94CA94B2278A94D049FD8
:10420000059E002129701A70130700F1058162785C
:10421000A549DFF8A0820A7010074FF00001C9F825
:104220003010C9F8381000F1E080A049A2780A7077
:104230000021C9F85010C9F858101107DFF874822E
:1042400000F10181E2789A499A4C0A700021120724
:10425000C9F87010C9F8781000F1B0803378019374
:10426000002183F00102C9F89010C9F89810D0E637
:104270004FF0000388F80030B3E7A98801F07F0110
:10428000042940F28D80834A0F2313708A4A012348
:10429000137052E540287FF6E2AE44F002040EEBC4
:1042A000C401029E4E60BAB19DF80410834A197091
:1042B0003346403888F8005040334EF83420E7E663
:1042C0009DF8043033700204029B0D7042F0C80266
:1042D00003444EF83C20D8E69DF804101970029B68
:1042E000774A88F80050403840334EF83420CFE603
:1042F00019F0080F0CBF022303238B5558E4714AB1
:104300000F21117060E6704A5468002CBBD0688899
:10431000B5F804E003E00C325468002CB3D01388E5
:104320008342F8D153887345F5D1000A03280CBFA6
:1043300094F800E0B2F808E003E0644A644C1278B4
:104340002270E888704580F03F8162490D784028EE
:10435000844645F0020E28BF4FF0400C04EB0C03DE
:1043600009EBCE02029301235460CCEB00004FEA2C
:104370000C4800220193C8245EE6554C4FF0020E13
:1043800022706270DDE7B1F5A06F7FF47CAF01238E
:10439000002201933DE642F221329142F7D072E7CA
:1043A0006A88002A7FF46FAF3A48CDF804E08900AC
:1043B0000844017821F0020101702AE600F098F922
:1043C000002800F0EF8008303D4AC4F88400C4F8AB
:1043D000802000F08DF9002800F0DE800830374A98
:1043E000C9F88C00C9F8882038E700F081F9002866
:1043F00000F0C0800830324AC8F84400C8F84020B5
:1044000000F076F9002800F0AF8008302B4AC9F898
:104410004C00C9F8482008E700F06AF9002800F0CD
:10442000CD800830264AC9F82400C9F8202000F0C1
:104430005FF9002800F0BC800830204AC9F82C0041
:10444000C9F82820E3E600F053F9002800F09E8028
:1044500008301B4AC8F86400C8F8602000F048F92A
:10446000002800F08D800830144AC9F86C00C9F8A3
:104470006820E7E6C86B083800F05AF904E5486B95
:10448000083800F055F9F9E4C86A083800F050F926
:10449000EEE400BFC0200740802007406884000091
:1044A000C42007406D94FF1FC8200740CC20074060
:1044B000D02007400080FF1F94200740C800400024
:1044C000880040000194FF1F6C8400007894FF1F57
:1044D0007094FF1F6C94FF1F606A083800F028F981
:1044E000C0E4C86F083800F023F9FDE4486F0838CD
:1044F00000F01EF9F2E4C86E083800F019F9E7E49C
:10450000486E083800F014F9DCE4C86D083800F093
:104510000FF9D1E4486D083800F00AF9C6E4C86C18
:10452000083800F005F9BBE4486C083800F000F9E1
:10453000B0E4D1F89C00083800F0FAF8ECE4D1F8C7
:104540009400083800F0F4F8E0E4D1F88C00083862
:1045500000F0EEF8D4E4D1F88400083800F0E8F870
:10456000C8E44FF0020EECE62A78C9F848000132A0
:104570002A705AE62A78C8F8400001322A703FE7CC
:104580002A78C9F8680001322A705BE62A78C8F8F0
:10459000600001322A7061E72A78C9F88800013288
:1045A0002A705BE62A78C4F8800001322A7010E78E
:1045B0002A78C9F8280001322A7028E62A78C9F832
:1045C000200001322A7032E7BEF1400FF44628BFC6
:1045D0004FF0400C04EB0C0302930123CCEB0E00D4
:1045E0004FEA0C480022019318E500BFF8B500F02F
:1045F00023FD294B29482A4C2A4F2B4DDFF8BCC0FC
:10460000DFF8BCE0294E00221A605A609A60DA6036
:104610001A615A619A61DA611A625A629A62DA62BE
:104620001A635A639A63DA631A645A649A64DA649E
:104630001A655A659A65DA651A665A669A66DA667E
:104640001A675A679A67DA67C3F880200168C3F867
:10465000842041F480210160C3F307212170C3F35A
:104660000740134938701B0E2B70FF238CF8003065
:10467000104D8EF8003010480B700123337084F811
:10468000642070264FF40074102207F82C3C2E7022
:10469000046081F8F820F8BD0080FF1F34800440DA
:1046A0009C200740B0200740B420074094200740DA
:1046B0001020074049E400E008E100E080200740C6
:1046C0008820074000F0A4B800F07CB800F056B88D
:1046D00000F090B800F06CB900F046B908461146F9
:1046E00000F0B2B8084600F033B900BF704700BF11
:1046F00072B60D480268B2FA82F30B2B10DC4FF051
:104700000041D94022EA0102026062B6074803EB89
:10471000C303DB00C2180021C1501046516070472E
:1047200062B60020704700BFDC89FF1FBC83FF1FFB
:104730000D4B0E4AC31AA2FB03231B090B2B0CD8EB
:104740000B4A127852B972B60A484FF0004102681B
:1047500021FA03F31A43026062B67047064A1278E0
:10476000002AF0D0FFF734B9BC83FF1F398EE3383D
:104770006D94FF1FDC89FF1F7894FF1F38B50F4D24
:10478000286878B143880288C118013393420C7AB3
:1047900002D24380204638BDFFF7CAFF00232046DF
:1047A0002B6038BD064B1B782BB10320FFF7DCF8DC
:1047B00028600028E6D14FF0FF3038BD8C94FF1FF1
:1047C0007894FF1F10B5094C206818B1438818442D
:1047D000007A10BD064B1B782BB10320FFF7C4F8FD
:1047E00020600028F2D14FF0FF3010BD8C94FF1FE5
:1047F0007894FF1F044B054A1B6890881BB11A88E8
:104800005B88D31A184470478C94FF1F7096FF1F63
:104810000B4B1B789BB110B50A4C206848B1FFF7D1
:1048200087FF002303202360FFF79EF830B1FFF7D6
:104830007FFF0320FFF798F80028F8D110BD7047DC
:104840007894FF1F8C94FF1F2DE9F04FDFF8F8904C
:1048500083B0012289F80020019169B3DFF8EC8070
:10486000364F019E8346D8F80000B0B3344D4488DB
:10487000C4F14001B14228BF314604EB010E0022D1
:104880001FFA8EFE2A70761AA0F802E000F10802E4
:1048900051B1013C224459441BF8014B02F8014F2D
:1048A0008B45F9D1B0F802E0BEF13F0F0BD8254A95
:1048B00005211170002ED6D10198002389F800300F
:1048C00003B0BDE8F08F4022028001460420FFF7CC
:1048D000E3F80022C8F80020E9E73A782AB3184D37
:1048E00048F601444FF0010A07E0013C16D02A784F
:1048F000A2B900F0ADF83A78BAB10420FFF752F847
:104900000728F2D889F800A0FFF7F2FEC8F80000E7
:104910000028ACD10C4B013C1870E8D101234FF0BA
:10492000FF302B7003B0BDE8F08F00234FF0FF3055
:1049300089F8003003B0BDE8F08F00BF7894FF1F06
:104940008894FF1F8094FF1F8194FF1F8494FF1F92
:1049500000B583B002AB012103F8010D1846FFF743
:1049600073FF03B05DF804FB38B50E4D0E4C28689C
:104970000123237028B1408800232370C0F1400038
:1049800038BD0A4B1B7813B90020207038BD0420B5
:10499000FFF708F80728F7D8FFF7AAFE28600028D5
:1049A000E9D1F1E78494FF1F8194FF1F7894FF1FE2
:1049B000F8B5114B1B788BB1104E114D346801279F
:1049C0002F7064B10F4A6388002717702146238037
:1049D0000420FFF761F8376000232B70F8BDFFF764
:1049E00087FE084B28B1014604201C70FFF754F8DD
:1049F000F2E71F70F0E700BF7894FF1F8494FF1F59
:104A00008194FF1F8094FF1F38B50E4B1B7873B93C
:104A10000D4C216861B103F0FF054B880B80042029
:104A2000FFF73AF8256038BD084B01221A7038BDEF
:104A3000FFF75EFE0028F7D00146BDE838400420AD
:104A4000FFF72AB88194FF1F8494FF1F8094FF1FF3
:104A500038B5224C237803B138BD01232370FFF70A
:104A6000C9FE70BB00F040F940BB00F0D3F910BBA9
:104A700000F066FAE0B900232370EFF30583002B02
:104A8000EAD1EFF3108172B6154B1868E0B1154CFE
:104A90002278CAB945691D6001232370C5B1AA6196
:104AA00001B962B600254577836898472570D3E73A
:104AB00000F018F9DFE700F013F9D9E700F00EF97C
:104AC000D3E7FFF713FECDE70029C5D162B638BDA5
:104AD000054B1D600029E5D1E3E700BF9194FF1F5E
:104AE000A494FF1FA894FF1FA094FF1F10B4EFF31E
:104AF000108272B6437F33B9017F012907D00329A1
:104B00000FD00123437702B962B610BC7047124C34
:104B10002168A1B1114943610B6883610860586144
:104B2000EFE70F4C216881B10E4943610B68836147
:104B3000086058610C4B4FF080511960E1E7074B5A
:104B40004161816120601860DBE7064B4161816152
:104B500020601860EEE700BFA494FF1FA094FF1F21
:104B60009494FF1F9894FF1F04ED00E010B4047F9D
:104B70004160022CC26002D010BCFFF7B7BF83684F
:104B800010BC184770B5EFF3108272B60C4C206859
:104B900080B10C4E00254369236073B19D6102B959
:104BA00062B6457783689847EFF3108272B6206843
:104BB0000028F0D102B962B670BD3360EFE700BFE4
:104BC0009494FF1F9894FF1FFFF7DCBF184A30B47E
:104BD0001468002C27D0036821688B420ED2CB1AB0
:104BE00000218460C1602360E060106002230375CF
:104BF00030BC704711688B42144608D3A2685B1A18
:104C00000360002AF6D18260C460A060EEE7D2683B
:104C1000C2608460E060C568CB1A0222A86023608D
:104C2000027530BC70478460C4601060DEE700BF6E
:104C30009C94FF1FF8B5224E34682CB32368002BD8
:104C40003AD1204F1D4604E03468ECB12368002BB4
:104C500032D1A36803B1DD60206933600368257534
:104C60001B68BB4221D1037F4560022BC46020D06A
:104C7000FFF73CFF6368002BE6D023602046FFF778
:104C8000A5FF3468002CE1D1EFF3108372B60E4A11
:104C900000211068116003B962B628B18468FFF77B
:104CA00095FF20460028F9D1F8BD224600219847FB
:104CB000E0E783689847DDE7013B2360E4E700BF56
:104CC0009C94FF1F6D4B0000AC94FF1F024A1368B9
:104CD00001331360FFF7AEBF9493FF1F704700BF0F
:104CE000704700BF704700BF054A064B10781B781D
:104CF000C0B2DBB2984238BF4030C01A704700BF24
:104D0000B494FF1FB594FF1FF0B4384B1A7912F01A
:104D1000300F2CD072B6997D01F0FF0200293DD0F2
:104D200062B6334F334938780D78334E1C46C0B2E3
:104D3000EDB2431C402BE17928BF0023AB4202F1C6
:104D4000FF32C9B21CBFF154184612F0FF02F0D175
:104D50002A4B1B68C2B23A704BB1A84236BFC5F1AC
:104D60004005401B40192728C4BF01221A701F4963
:104D7000CA78D2B2150616D452060DD51B4B1B7934
:104D80005B0609D51E4B1F491B6800220A7003B140
:104D90001A70164B3C22DA70F0BC70474022D97969
:104DA0005A7462B6E3E70B791C06E5D5164B174E2D
:104DB0001C783378E4B2DBB29C420ED0144D01E093
:104DC000A3420AD00133402B28BF00230879E85CB6
:104DD000C0B2C871087D0728F2D9DBB2034933702D
:104DE0000B79180644BF7C23CB70C5E700A00640B2
:104DF000B494FF1FB594FF1FF894FF1FB094FF1FDA
:104E00003C95FF1F3895FF1F4095FF1F3995FF1FE9
:104E1000B894FF1F054A064B10781B78C0B2DBB26E
:104E2000984238BF4030C01A704700BFB495FF1F8A
:104E30004995FF1FF0B4384B1A7912F0300F2CD07F
:104E400072B6997D01F0FF0200293DD062B6334F62
:104E5000334938780D78334E1C46C0B2EDB2431C4E
:104E6000402BE17928BF0023AB4202F1FF32C9B2E7
:104E70001CBFF154184612F0FF02F0D12A4B1B68F8
:104E8000C2B23A704BB1A84236BFC5F14005401BD3
:104E900040192728C4BF01221A701F49CA78D2B20C
:104EA000150616D452060DD51B4B1B795B0609D58A
:104EB0001E4B1F491B6800220A7003B11A70164B63
:104EC0003C22DA70F0BC70474022D9795A7462B63D
:104ED000E3E70B791C06E5D5164B174E1C783378A3
:104EE000E4B2DBB29C420ED0144D01E0A3420AD0E2
:104EF0000133282B28BF00230879E85CC0B2C871B1
:104F0000087D0728F2D9DBB2034933700B79180604
:104F100044BF7C23CB70C5E700B00640B495FF1FAB
:104F20004995FF1F7495FF1F4495FF1FB895FF1FFC
:104F30004895FF1FBC95FF1FB595FF1F4C95FF1FA0
:104F4000054A064B10781B78C0B2DBB2984238BFD6
:104F50004030C01A704700BFC495FF1FC595FF1FA2
:104F600030B42B4B1A7994061FD52A48DA79037886
:104F7000294901333F2B0978C8BF00238B42D2B2A5
:104F800003D0264CD9B2E2540170254A116861B1B0
:104F9000244A1278D2B2934236BFC2F140029B1A21
:104FA0009B18272BC4BF01230B70194AD378DBB29F
:104FB000180611D45A060DD5154B1B795B0609D579
:104FC000194B1A491B6800220A7003B11A70104B62
:104FD0002C22DA7030BC704711790906EAD51449E1
:104FE00010480C780178C9B28C420DD04A1C272A8F
:104FF00084BF00210A460F4D054C98BFD1B2AA5C70
:10500000D2B2E2710170D5E76C21D170D2E700BF56
:1050100000C00640C495FF1FC595FF1FF095FF1FF8
:10502000C095FF1F3196FF1F3496FF1F3096FF1F5C
:105030003896FF1FC895FF1F70B584B072B6194B24
:10504000194D1A48702241260F2480211A702E70A3
:105050001A460470197013781B06FCD5144B186897
:1050600062B6144B144C984298BF00EB800001A923
:1050700098BF40000A22FEF721F901A9204600232B
:1050800011F8012B01333AB10A2B20F8022FF7D186
:105090001623237004B070BD5B00DBB2237004B034
:1050A00070BD00BF00000240070002400600024041
:1050B000080002407F9698006C8AFF1F0B4601464D
:1050C000184601F029BE00BF90E80C00F0B41C683F
:1050D00059682568164F174E29432160164D174908
:1050E0001760D66015611160417A154A5C180A3163
:1050F00094F8244053F8215002EBC40149680D6034
:10510000017A5C1803EB8101247ECD6902EBC401B6
:1051100049680D60817A581803EB810390F83000DC
:10512000596B02EBC002F0BC53681960704700BFB6
:1051300001401F00011000380110007800001F809E
:105140003083000030B51F4A21F00043934287B0FE
:105150001BDD1D4A934205DD02460B4601F046F970
:1051600007B030BD02AA00F033F800F003000128B8
:10517000DDE904231AD002280FD0E0B1DDE90201F5
:1051800000F04AFA01F10041EAE70023009300220F
:10519000002300F05DFF07B030BD0124DDE902010E
:1051A000009400F055FF01F10041D9E7DDE902016B
:1051B00000F032FAD4E70124DDE90201009400F0A6
:1051C00047FFCDE7FB21E93FFFFFEF7FFFFFFFFF39
:1051D0002DE9F04F944E21F00047B74291B040F3D3
:1051E00082809246914A97420C4626DC002984A38D
:1051F000D3E9002340F3A88101F0F8F88C4B9F42DB
:1052000004460D4600F084807FA3D3E9002301F01B
:10521000EDF802460B46CAE900232046294601F074
:10522000E5F879A3D3E9002301F0E0F80125CAE904
:105230000201284611B0BDE8F08F7E4A974240F344
:1052400084807D4A974259DC3D15A5F21645A7EBAF
:10525000055319461F46064601F016FD01F014FAE3
:105260008046894602460B4630463946CDE90A89D2
:1052700001F0BCF80022714B01F06CFA89468046BF
:1052800001F002FD01F000FA02460B4606460F4609
:1052900040464946CDE90C6701F0A8F80022674B6B
:1052A00001F058FA00220023CDE90E0101F0BAFC0A
:1052B000002800F07581002330463946002201F0B5
:1052C000B1FC002814BF012302235D4A0192022190
:1052D00000912A4651460AA800F0C2FA002CC0F2FA
:1052E0005181054606E0C2E9000100250024C2E91B
:1052F00002450025284611B0BDE8F08F02460B4656
:1053000001F074F80025CAE90201CAE90001F1E7D9
:105310003FA3D3E9002301F069F83FA3D3E90023B9
:105320000D46044601F062F802460B46CAE9002326
:105330002946204601F05AF837A3D3E9002301F0AB
:1053400055F80125CAE90201D4E700F037FF34A37C
:10535000D3E900238046894601F0FCF90022394B4D
:1053600001F046F801F090FC054601F08DF924A308
:10537000D3E90023CDE9040101F0ECF902460B4624
:105380004046494601F032F81FA3D3E90023804686
:105390008946DDE9040101F0DDF91F2DCDE90201A7
:1053A00054DC294B6A1E53F822309F424ED00246ED
:1053B0000B464046494601F019F802460B46CAE939
:1053C000002383460E465A4633464046494601F07E
:1053D0000DF8DDE9022301F009F8002C02460B4626
:1053E000CAE9022386DA5B4606F1004601F1004174
:1053F0008AE84800CAF80C10CAF808006D4279E73C
:1054000000004054FB21F93F3163621A61B4D03D82
:105410000000601A61B4D03D7370032E8A19A33B5B
:1054200083C8C96D305FE43FFB21E93F7BD902406F
:10543000FB21F93FFB213941FFFFEF7F0000704165
:10544000408500000000E03FC0840000DDE9022349
:105450004046494600F0CAFF3A15C1F30A53D31A31
:10546000102B83460E460992CAE90001ABDD5EA30C
:10547000D3E90023DDE9040101F06CF906460F468B
:1054800002460B464046494600F0B0FFCDE9060112
:1054900002460B464046494600F0A8FF32463B46CE
:1054A00000F0A4FF52A3D3E9002306460F46DDE92E
:1054B000040101F04FF932463B4600F097FFDDE969
:1054C0000689CDE9020102460B464046494600F0F6
:1054D0008DFF0B46C1F30A570E460999CF1B0246B2
:1054E000312F8346CAE900237ADD43A3D3E90023A1
:1054F000DDE9040101F02EF906460F4602460B468F
:1055000040464946CDE9068900F070FF02460B4649
:1055100080468946DDE9060100F068FF32463B46D9
:1055200000F064FF36A3D3E9002306460F46DDE909
:10553000040101F00FF932463B4600F057FF0246E6
:105540000B46CDE9022334E700F052FF304B9F4277
:1055500004460D4626D02CA3D3E9002300F048FFD3
:1055600002460B46CAE900232946204600F03EFFCA
:1055700025A3D3E9002300F03BFF4FF0FF35CAE934
:105580000201B7E6DAF80420DAF80C3002F1004242
:1055900003F100434542CAF80420CAF80C30A9E6DA
:1055A000032392E610A3D3E9002300F021FF10A308
:1055B000D3E900230D46044600F01AFF02460B46CD
:1055C000CAE900232946204600F010FF08A3D3E9CA
:1055D000002300F00DFF4FF0FF35CAE9020189E614
:1055E000DDE90689EFE600BF0000601A61B4D03D36
:1055F0007370032E8A19A33B0000002E8A19A33B67
:10560000C14920259A837B393163621A61B4D03D48
:10561000FB21F93FFFFFFFFF2DE9F04F21F000468E
:10562000B6F1795F85B00C4692469B4605466BDA2B
:1056300001F02AFB002800F0E8802A46234628468D
:10564000214601F087F874A3D3E9002380468946F8
:1056500001F080F872A3D3E9002300F0C9FE4246AE
:105660004B4601F077F870A3D3E9002300F0BEFEAB
:1056700042464B4601F06EF86DA3D3E9002300F0DB
:10568000B7FE42464B4601F065F86BA3D3E9002311
:1056900000F0ACFE42464B4601F05CF868A3D3E94B
:1056A000002300F0A5FE42464B4601F053F8CDE939
:1056B00000010022644B4046494601F04BF8DDE909
:1056C000002306460F464046494601F043F852463D
:1056D000804689465B462846214601F03BF8024653
:1056E0000B464046494600F081FE02460B463046D6
:1056F000394600F07BFE02460B460020534900F07D
:1057000075FE05B0BDE8F08F02460B4601F022F8A9
:1057100041A3D3E900238046894601F01BF840A34A
:10572000D3E9002300F064FE42464B4601F012F834
:105730003DA3D3E9002300F059FE42464B4601F059
:1057400009F83BA3D3E9002300F052FE42464B4642
:1057500001F000F838A3D3E9002300F047FE4246E9
:105760004B4600F0F7FF36A3D3E9002300F040FEDC
:105770004B46424600F0EEFF354B9E42CDE900011C
:1057800097DD344B9E424FF0000238DCA6F5001343
:1057900000202E4916461F4600F028FECDE90201E2
:1057A0000022294B4046494600F0D4FF32463B4692
:1057B00000F01CFEDDE9002306460F464046494640
:1057C00000F0C8FF5246804689465B46284621467F
:1057D00000F0C0FF02460B464046494600F006FE78
:1057E00002460B463046394600F000FE02460B46A4
:1057F000DDE9020100F0FAFD05B0BDE8F08F164BBF
:10580000164FCDE902230026CAE71049002005B053
:10581000BDE8F08FAFF30080D43888BEE9FAA8BDA8
:10582000C4B1B4BD9EEE213EAD529C804F7E923EEF
:105830009015CB19A001FA3E7751C1166CC1563FA5
:105840004C5555555555A53F0000E03F0000F03F31
:105850003233D33F0000E93F0000E73F0000D23F72
:105860002DE9F04FADF51D7D784CA69E784D54F88E
:10587000264009942646D41E85FB0475E417C4EB24
:10588000A50424EAE4741D460B93631CA3EB830375
:10589000013D02EBC30308932B460D940295651B53
:1058A000F41804900A9116D42C44013422AEA79F18
:1058B00008E057F8250000F0E7FE0135A542E6E9CB
:1058C000020108D0002DF4DA013500200021A542A4
:1058D000E6E90201F6D1099B002B2FDB099BDDF8DD
:1058E000089074AA02EBC30B0DF5E47A029B002B1F
:1058F000C0F295810B9BC3EB090824AB03EBC808EE
:10590000049BA3F1080524AB03EBC9040026002780
:10591000F5E9022374E8020100F01CFF02460B4681
:105920003046394600F064FD444506460F46EFD147
:10593000EAE90267DA4509F10109D7D1099D05F1C4
:105940008043023B9B001A1D10A90A440B440F928E
:105950000E939CAB03EBC503002D53E928672BDDA9
:105960009CAB03EBC504A83C0DF13C0A0DF5E47BB0
:105970000022384B3046394600F0ECFE01F084F945
:1059800000F082FE0022344B8046894600F0E2FEA1
:1059900002460B463046394600F028FD01F074F906
:1059A00074E802234AF8040F4946404600F020FDFF
:1059B0005C4506460F46DBD1089C304639462246F8
:1059C00000F08AFC00224FF07F5306460F4600F09D
:1059D000C1FE00F0F9FB0022204B00F0BBFE0246A6
:1059E0000B463046394600F001FD0F46064601F0F1
:1059F0004BF9814600F048FE02460B4630463946D8
:105A000000F0F4FC002C06460F4640F3EF80691EC0
:105A100010AAC4F1180352F8212042FA03F000FA48
:105A200003F3D31A10AAC4F1170842F821308144B5
:105A300043FA08F8B8F1000F3DDD002D09F1010926
:105A400040F3D482002214460FA911E048860000DA
:105A5000ABAAAA2A0000703E00007041000020405E
:105A6000C3F180700BB108600124013295420DDD55
:105A700051F8043F002CF3D0C3F1FF13013203F5BA
:105A80007F4395420B604FF00104F1DC089B002B33
:105A90000DDD012B00F0B280022B08D16A1E10AB85
:105AA00010A953F82230C3F3150341F82230B8F19E
:105AB000020F00F08280002200233046394601F0B8
:105AC000B1F8002800F05C82099B05F1FF3B5B45C3
:105AD00010DC05F1804310AA013B0F9802EB830311
